S0150000646F7562756C65626F74746F6D2E737265638A
S11300000C942A000C943C000C943C000C943C008E
S11300100C943C000C943C000C943C000C944C005C
S11300200C9473000C943C000C943C000C943C0025
S11300300C943C000C943C000C943C000C943C004C
S11300400C943C000C943C000C943C000C943C003C
S11300500C943C0011241FBECFE5D8E0DEBFCDBF19
S113006020E0A0E6B0E001C01D92A836B207E1F797
S11300700E949A000C94B1000C940000789488E1DA
S113008089BF80E58FBD8AE08EBD80E593EC9BBD82
S11300908ABD99BD88BD08951F920F920FB60F9225
S11300A011242F933F938F939F9380916600909197
S11300B06700019690936700809366002091620028
S11300C030916300281739072CF41FBC1092670085
S11300D0109266009F918F913F912F910F900FBEC8
S11300E00F901F9018951F920F920FB60F92112424
S11300F02F933F938F939F93809164009091650019
S11301000196909365008093640020916000309183
S11301106100281739072CF41EBC10926500109258
S113012064009F918F913F912F910F900FBE0F907C
S11301301F9018950E943E0080E189BF20E533ECB2
S11301403BBD2ABD80E293E09093630080936200FC
S113015048E049BF39BD28BD909361008093600099
S1090160FFCFF894FFCF6D
S9030000FC
