:100000000C942A000C943C000C943C000C943C0092
:100010000C943C000C943C000C943C000C944C0060
:100020000C945F000C943C000C943C000C943C003D
:100030000C943C000C943C000C943C000C943C0050
:100040000C943C000C943C000C943C000C943C0040
:100050000C943C0011241FBECFE5D8E0DEBFCDBF1D
:1000600020E0A0E6B0E001C01D92A036B207E1F7A3
:100070000E9472000C9475000C940000789488E142
:1000800089BF80E58FBD8AE08EBD80E593EC9BBD86
:100090008ABD99BD88BD08951F920F920FB60F9229
:1000A00011248F939F9387B38FEF87BB98B388BB3F
:1000B0009F918F910F900FBE0F901F9018951F92D8
:1000C0000F920FB60F9211248F939F9387B38FEFE8
:1000D00087BB98B388BB9F918F910F900FBE0F90F5
:0E00E0001F9018950E943E00FFCFF894FFCFAE
:00000001FF
